:020000040000FA
:08000000803102288731ED2F49
:10000A0008004001980199019A01920193010F3069
:10001A0094007E01CE01B8010430BA00D001373015
:10002A00BB00FF30D1003F30BC00FF30D2000800D7
:10003A00FA00780886008701403F4001BC00413F32
:10004A00BD003C0884003D0885001200253A031DC6
:10005A002F28302874287808860087010130810704
:10006A0041310318810AA201A301A601A701FF30A9
:10007A00A400FF30A500780886008701403FBC0035
:10008A00413FBD003C0884003D0885001200253A26
:10009A00031D5028512869287808860087010130F5
:1000AA00810741310318810A2530F0000030F10040
:1000BA007A08BC003C08F2008E319C26803101305F
:1000CA00F8000030F9009628780886008701013088
:1000DA00810741310318810AF801F9019628780845
:1000EA0086008701403FBC00413FBD003C088400B8
:1000FA003D0885000008BE00BF013E08F0003F0829
:10010A00F1007A08C0004008F2008E319C26803146
:10011A007808860087010130810741310318810A76
:10012A0064280800013083311F23803100304001E8
:10013A00C6008830C70028308E3108268031F30186
:10014A0028304001D0005008F40001308E31532687
:10015A008031B9304001C6008830C70028308E315E
:10016A000826803105304001D0005008F3002830BD
:10017A00D1005108F40002308E31532680318F307D
:10018A004001C6008830C70028308E3108268031E9
:10019A0003304001D0005008F3002830D100510844
:1001AA00F40003308E315326803100304001C600FE
:1001BA008830C70028308E3108268031F301283074
:1001CA004001D0005008F40004308E3153268031AB
:1001DA00400118168631E12680314001181202309A
:1001EA004001D1004530D000A930890BFA28D00B44
:1001FA00FA28D10BFA2800324001981685310B25CE
:10020A0080314001981202304001D1004530D000BF
:10021A00A930890B0E29D00B0E29D10B0E290032D9
:10022A000800013083311F23813100304001C600AC
:10023A008830C70028308E3108268131F3012830F2
:10024A004001D0005008F40001308E31532681312C
:10025A00B9304001C6008830C70028308E310826E0
:10026A00813105304001D0005008F3002830D10018
:10027A005108F40002308E3153268131703040012A
:10028A00C6008830C70028308E31082681310330F5
:10029A004001D0005008F3002830D1005108F40082
:1002AA0003308E315326813100304001C600883038
:1002BA00C70028308E3108268131F30128304001E9
:1002CA00D0005008F40004308E31532681314001A9
:1002DA0018168531E9258131400118120230400192
:1002EA00D1004530D000A930890B7929D00B792962
:1002FA00D10B79290032400199168631E1268131E4
:10030A004001991202304001D1004530D000A93095
:10031A00890B8D29D00B8D29D10B8D29003208002C
:10032A00013083311F23813100304001C6008830FB
:10033A00C70028308E3108268131F3012830400168
:10034A00D0005008F40001308E3153268131B93083
:10035A004001C6008830C70028308E310826813116
:10036A0005304001D0005008F3002830D100510870
:10037A00F40002308E3153268131AC304001C60080
:10038A008830C70028308E31082681310430400178
:10039A00D0005008F3002830D1005108F40003308F
:1003AA008E315326813100304001C6008830C700A3
:1003BA0028308E3108268131F30128304001D000DF
:1003CA005008F40004308E315326813140019814CC
:1003DA0085310B2581314001981002304001D1004E
:1003EA004530D000A930890BF829D00BF829D10B58
:1003FA00F8290032400198168631E1268131400100
:10040A00981202304001D1004530D000A930890B42
:10041A000C2AD00B0C2AD10B0C2A0032080001300E
:10042A0083311F23823100304001C6008830C70063
:10043A0028308E3108268231F30128304001D0005D
:10044A005008F40001308E3153268231B930400110
:10045A00C6008830C70028308E3108268231053020
:10046A004001D0005008F3002830D1005108F400B0
:10047A0002308E31532682319E304001C6008830C8
:10048A00C70028308E310826823104304001D0005E
:10049A005008F3002830D1005108F40003308E319F
:1004AA005326823100304001C6008830C700283008
:1004BA008E3108268231F30128304001D0005008DD
:1004CA00F40004308E31532682314001981485316C
:1004DA000B2582314001981002304001D10045308D
:1004EA00D000A930890B772AD00B772AD10B772A2B
:1004FA000032400199168631E12682314001991273
:10050A0002304001D1004530D000A930890B8B2A36
:10051A00D00B8B2AD10B8B2A00320800400194138E
:10052A00141394121412131313128E130E138E1221
:10053A000E120D130D12C43000320032890BA12A9B
:10054A0000320000C43000320032890BA82A00327F
:10055A000000C43000320032890BAF2A003200009A
:10056A00C43000320032890BB62A00320000C4308F
:10057A0000320032890BBD2A00320000C43000323A
:10058A000032890BC42A00320000F401F40A400147
:10059A008E130E138E160E160D130D128E130E13C6
:1005AA008E160E160D170D12000040018E130E1333
:1005BA008E160E160D130D12C43000320032890B3E
:1005CA00E22A003200000130F3007308F407043015
:1005DA007402031CF12AF22ACC2A40018E130E134C
:1005EA008E160E120D130D128E130E138E160E1278
:1005FA000D170D12000040018E130E138E160E12E7
:10060A000D130D12C43000320032890B082B003250
:10061A000000283083311F238231103083311F2399
:10062A008231013083311F2382310F3083311F23FE
:10063A0082310800F20040010D130D127208F00019
:10064A000730F036890B262B70080139F100F10CBE
:10065A00F10C0E0871067F3971068E007208F000DF
:10066A000630F036890B362B70080139F100F10E8D
:10067A00F10DF10D0E087106BF3971068E00720870
:10068A00F0000530F036890B472B70080139F1006C
:10069A00F10EF10D0E087106DF3971068E0072082F
:1006AA00F0000430F036890B572B70080139F1003D
:1006BA00F10E0E087106EF3971068E000330890BB0
:1006CA00642B000040010D17000040010D13720851
:1006DA00F0000330F036890B6F2B70080139F100F6
:1006EA00F10CF10C0E0871067F3971068E00720842
:1006FA00F0000230F036890B7F2B70080139F100C7
:10070A00F10EF10DF10D0E087106BF3971068E005A
:10071A0072360139F000F00EF00D0E087006DF395E
:10072A0070068E0072080139F000F00E0E0870068D
:10073A00EF3970068E000330890BA12B00004001AF
:10074A000D17000040010D13C43000320032890B2E
:10075A00AA2B003200000800F20040010D130D160A
:10076A007208F0000730F036890BB82B700801398F
:10077A00F100F10CF10C0E0871067F3971068E003A
:10078A007208F0000630F036890BC82B7008013960
:10079A00F100F10EF10DF10D0E087106BF39710667
:1007AA008E007208F0000530F036890BD92B7008DC
:1007BA000139F100F10EF10D0E087106DF397106EB
:1007CA008E007208F0000430F036890BE92B7008AD
:1007DA000139F100F10E0E087106EF3971068E002B
:1007EA000330890BF62B000040010D170000400171
:1007FA000D137208F0000330F036890B012C7008D3
:10080A000139F100F10CF10C0E0871067F397106FD
:10081A008E007208F0000230F036890B112C700835
:10082A000139F100F10EF10DF10D0E087106BF3913
:10083A0071068E0072360139F000F00EF00D0E08C6
:10084A007006DF3970068E0072080139F000F00E6A
:10085A000E087006EF3970068E000330890B332CB0
:10086A00000040010D17000040010D130000C430C4
:10087A0000320032890B3D2C0032000008000130A2
:10088A0083311F23843100304001C6008830C700FD
:10089A0028308E3108268431F30128304001D000F7
:1008AA005008F40001308E315326843180304001E3
:1008BA00C6008830C70028308E31082684310330BC
:1008CA004001D0005008F3002830D1005108F4004C
:1008DA0002308E3153268431C4304001C60088303C
:1008EA00C70028308E310826843106304001D000F6
:1008FA005008F3002830D1005108F40003308E313B
:10090A005326843100304001C6008830C7002830A1
:10091A008E3108268431F30128304001D000500876
:10092A00F40004308E315326843107304001D1005F
:10093A005830D0005930890BA02CD00BA02CD10BE9
:10094A00A02C0032013083311F2384310030400152
:10095A00C6008830C70028308E3108268431F3015A
:10096A0028304001D0005008F40001308E3153265F
:10097A008431D5304001C6008830C70028308E3116
:10098A000826843108304001D0005008F30028308E
:10099A00D1005108F40002308E3153268431C4301C
:1009AA004001C6008830C70028308E3108268431BD
:1009BA0006304001D0005008F3002830D100510819
:1009CA00F40003308E315326843100304001C600D2
:1009DA008830C70028308E3108268431F301283048
:1009EA004001D0005008F40004308E31532684317F
:1009FA0004304001D100CF30D0000130890B032DE3
:100A0A00D00B032DD10B032D003208000130F10069
:100A1A000030F2004001181599178230F000DE30DC
:100A2A00890B152DF00B152D4001181199138230E1
:100A3A00F000DE30890B1F2DF00B1F2D4001991796
:100A4A0018158230F000DE30890B292DF00B292D84
:100A5A004001991318118230F000DE30890B332DD2
:100A6A00F00B332D400118153130F000B230890BEC
:100A7A003C2DF00B3C2D0032400199173130F0002B
:100A8A00B230890B462DF00B462D003240019913E6
:100A9A003130F000B230890B502DF00B502D00325E
:100AAA00400118113130F000B230890B5A2DF00B89
:100ABA005A2D0032400118153130F000B230890B3E
:100ACA00642DF00B642D0032400199173130F0008B
:100ADA00B230890B6E2DF00B6E2D00324001991346
:100AEA003130F000B230890B782DF00B782D0032BE
:100AFA00400118113130F000B230890B822DF00B11
:100B0A00822D0032400118153130F000B230890BC5
:100B1A008C2DF00B8C2D0032400199173130F000EA
:100B2A00B230890B962DF00B962D003240019913A5
:100B3A003130F000B230890BA02DF00BA02D00321D
:100B4A00400118113130F000B230890BAA2DF00B98
:100B5A00AA2D0032400118153130F000B230890B4D
:100B6A00B42DF00BB42D0032400199173130F0004A
:100B7A00B230890BBE2DF00BBE2D00324001991305
:100B8A003130F000B230890BC82DF00BC82D00327D
:100B9A00400118113130F000B230890BD22DF00B20
:100BAA00D22D00320130F1070030F23D7208803A4E
:100BBA00F00080307002031DE42D06307102031C20
:100BCA00E72DE82D0F2D08000130F1000030F2006A
:100BDA00400118153130F000B230890BF22DF00BBC
:100BEA00F22D0032400118113130F000B230890B79
:100BFA00FC2DF00BFC2D0032400118153130F000AD
:100C0A00B230890B062EF00B062E003240019917DE
:100C1A003130F000B230890B102EF00B102E00325A
:100C2A00400199133130F000B230890B1A2EF00BC3
:100C3A001A2E0032400199173130F000B230890B78
:100C4A00242EF00B242E0032400199173130F00087
:100C5A00B230890B2E2EF00B2E2E00324001991342
:100C6A003130F000B230890B382EF00B382E0032BA
:100C7A00400199173130F000B230890B422EF00B47
:100C8A00422E0032400118153130F000B230890B83
:100C9A004C2EF00B4C2E0032400118113130F0006E
:100CAA00B230890B562EF00B562E00324001181521
:100CBA003130F000B230890B602EF00B602E00321A
:100CCA004001181199133130F000B230890B6B2EA4
:100CDA00F00B6B2E0032400118153130F000B230A3
:100CEA00890B752EF00B752E003240011811313028
:100CFA00F000B230890B7F2EF00B7F2E00324001BC
:100D0A0099173130F000B230890B892EF00B892EF9
:100D1A000032400199133130F000B230890B932E22
:100D2A00F00B932E00324001181199134130F00054
:100D3A00EE30890B9E2EF00B9E2E003240011815C4
:100D4A0099174130F000EE30890BA92EF00BA92E2D
:100D5A0000324001181199134130F000EE30890B2E
:100D6A00B42EF00BB42E00324001181599174130F9
:100D7A00F000EE30890BBF2EF00BBF2E003240017F
:100D8A00181199134130F000EE30890BCA2EF00B7E
:100D9A00CA2E00320130F1070030F23D7208803A63
:100DAA00F00080307002031DDC2E03307102031C38
:100DBA00DF2EE02EED2D08000130F1000030F200A8
:100DCA00400118153130F000B230890BEA2EF00BD1
:100DDA00EA2E0032400199173130F000B230890B07
:100DEA00F42EF00BF42E0032400199133130F0004A
:100DFA00B230890BFE2EF00BFE2E00324001181184
:100E0A003130F000B230890B082FF00B082F003276
:100E1A00400118153130F000B230890B122FF00B57
:100E2A00122F0032400199173130F000B230890B8D
:100E3A001C2FF00B1C2F0032400199133130F000A7
:100E4A00B230890B262FF00B262F003240011811E1
:100E5A003130F000B230890B302FF00B302F0032D6
:100E6A00400199173130F000B230890B3A2FF00B5C
:100E7A003A2F0032400199133130F000B230890B19
:100E8A00442FF00B442F0032400199173130F00003
:100E9A00B230890B4E2FF00B4E2F0032400118153D
:100EAA003130F000B230890B582FF00B582F003236
:100EBA00400118113130F000B230890B622FF00B6B
:100ECA00622F0032400118153130F000B230890B20
:100EDA006C2FF00B6C2F003240011811991331302E
:100EEA00F000B230890B772FF00B772F00324001D8
:100EFA0018153130F000B230890B812FF00B812F99
:100F0A000032400118113130F000B230890B8B2FBA
:100F1A00F00B8B2F0032400199173130F000B230BC
:100F2A00890B952FF00B952F003240019913313020
:100F3A00F000B230890B9F2FF00B9F2F0032400137
:100F4A00181199134130F000EE30890BAA2FF00BDB
:100F5A00AA2F00324001181599174130F000EE30DF
:100F6A00890BB52FF00BB52F0032400118119913D8
:100F7A004130F000EE30890BC02FF00BC02F003249
:100F8A004001181599174130F000EE30890BCB2F2C
:100F9A00F00BCB2F00324001181199134130F000A9
:100FAA00EE30890BD62FF00BD62F00320130F10725
:100FBA000030F23D7208803AF00080307002031D62
:100FCA00E82F05307102031CEB2FEC2FE52E0800E9
:100FDA0020308400003085001C308E310226873193
:100FEA00A03084000030850020308E3102268731FF
:100FFA0040018E31EB2E3D343D343D343D343D3499
:10100A003D343D343D343D343D343D343D343D344E
:10101A003D343D343D343D343D343D343D3400347B
:10102A003C3432343E34203456346F3464346B34B6
:10103A0061342034793420344E346134723461346A
:10104A006E346A34613400343C3431343E342034F2
:10105A0056346F3464346B34613420347934203438
:10106A00473469346E3467346534723400343C343E
:10107A0034343E34203452346F346E34203479346C
:10108A0020344E346134723461346E346A346134DB
:10109A00003451345534453420344C344F342034E0
:1010AA004434493453344634523455345434453430
:1010BA00533400343C3433343E34203452346F34A5
:1010CA006E34203479342034473469346E346734CA
:1010DA0065347234003456344F3444344B3441341A
:1010EA002034593420344E344134523441344E344D
:1010FA004A34413400344434493453345034453446
:10110A004E345334413444344F345234203444340A
:10111A004534003456344F3444344B34413420344B
:10112A0079342034473449344E34473445345234C0
:10113A00003452344F344E342034593420344E342F
:10114A004134523441344E344A34413400345234F6
:10115A004F344E34203459342034473449344E34D1
:10116A0047344534523400345034523445345034C0
:10117A004134523441344E3444344F3400344334CD
:10118A004F344334543445344C34453453340034A6
:10119A0047345234413443344934413453340034AB
:0A11AA004D3445344E345534003402
:101BFA0051019101930192010800640080010131B1
:101C0A00890B032E00344001CF004830C800480831
:101C1A00C9004F08C8004808CA00CB01CC01CD0151
:101C2A00CE014708FC004608FB004930C8004808B6
:101C3A00FD004A308E312B268E3140014B084F076A
:101C4A00C800480886008701810108004001C300D6
:101C5A007C08C5007B08C400A001A101452E4430C0
:101C6A00C1004108F8007D08C2004208F900430893
:101C7A0080311D208E3178084001A0077908A13DE6
:101C8A0044088400450885001200031D4D2E4E2E7F
:101C9A00342E2108FC002008FB000800F7006D2EF6
:101CAA007308803EF5007508F800832E7308C03E5D
:101CBA00F5007508F800832E7308943EF500750840
:101CCA00F800832E7308D43EF5007508F800832EB9
:101CDA007708F500F6017608003A0319752E832E67
:101CEA007508013A0319552E033A03195B2E013A76
:101CFA000319612E073A0319672E832E7808833158
:101D0A001F238E31932E74088600870101088331C0
:101D1A00B1238E310130F5007508F4077408860086
:101D2A0087010108031D9A2E9B2E882E080072082F
:101D3A000319A02EA12EA62E7208031DA52EA62ECB
:101D4A00AB2E7008803105208E31EA2E7208033ED0
:101D5A0086008701160001040319B42EB52ED22E6F
:101D6A007208033E86008701403FF300413FF400BA
:101D7A00720A86008701403FF500413FF600760867
:101D8A00803AF7007408803A7702031DCE2E730852
:101D9A0075020318D12ED22EEA2E7008F3007208AB
:101DAA0086008701720A8400850100080107F40091
:101DBA0074088600870173088100720A8600870109
:101DCA000130810741310318810A08008031062059
:101DDA008E318D31FD258E31823193228E31013043
:101DEA0083311F238E310C3083311F238E3184318E
:101DFA0044248E318F313E278E3140010E18062F32
:101E0A00072F112F803197208E318F319C278E31E9
:101E1A008F313E278E31022F8E18142F152F1F2F28
:101E2A00813116218E318F319C278E318F313E2799
:101E3A008E31022F0E19222F232F2D2F813195211A
:101E4A008E318F319C278E318F313E278E31022F72
:101E5A008E19302F312F3B2F823114228E318F3140
:101E6A009C278E318F313E278E31022F022F8031EF
:101E7A000228013083311F238F3129304001C600E7
:101E8A008830C70028308E3108268F31F301283078
:101E9A004001D0005008F40001308E3153268F31B2
:101EAA0015304001C6008830C70028308E31082618
:101EBA008F31F30128304001D0005008F40002307D
:101ECA008E3153268F315F304001C6008830C700FB
:101EDA0028308E3108268F31F30128304001D00096
:101EEA005008F40003308E3153268F313C304001C4
:101EFA00C6008830C70028308E3108268F31F3019A
:101F0A0028304001D0005008F40004308E315326A6
:101F1A008F3107304001D1005830D0005930890B39
:101F2A00942FD00B942FD10B942F0032080001303C
:101F3A0083311F238F3100304001C6008830C7002B
:101F4A0028308E3108268F31F30128304001D00025
:101F5A005008F40001308E3153268F31CD304001C4
:101F6A00C6008830C70028308E3108268F310730E6
:101F7A004001D0005008F3002830D1005108F40085
:101F8A0002308E3153268F314E304001C6008830E0
:101F9A00C70028308E3108268F3102304001D00028
:101FAA005008F3002830D1005108F40003308E3174
:101FBA0053268F3100304001C6008830C7002830D0
:101FCA008E3108268F31F30128304001D0005008A5
:101FDA00F40004308E3153268F3103304001D10092
:101FEA008A30D0005530890BF82FD00BF82FD10B3F
:061FFA00F82F0032080080
:020000040001F9
:04000E00ED3FE73F9C
:04001400FF3FFF3F6C
:00000001FF
